:100000000C945E000C9486000C9486000C944305BE
:100010000C9443050C9443050C9486000C948600C4
:100020000C9486000C9486000C9486000C94860038
:100030000C9486000C9486000C9486000C94860028
:100040000C94A1040C9486000C9411050C94EB0400
:100050000C9486000C9486000C9486000C94860008
:100060000C9486000C9486000000000024002700F9
:100070002A0000000000250028002B0004040404CE
:100080000404040402020202020203030303030342
:10009000010204081020408001020408102001021F
:1000A00004081020000000080002010000030407FB
:1000B00000000000000000004D05A10711241FBE34
:1000C000CFEFD8E0DEBFCDBF23E0A4E8B1E001C0B0
:1000D0001D92AC30B207E1F711E0A0E0B1E0E8E238
:1000E000F5E102C005900D92A438B107D9F710E0F0
:1000F000CDE5D0E004C02197FE010E945F08CC3519
:10010000D107C9F70E94D1050C94870A0C9400000E
:10011000E1EBF0E09491EDE9F0E02491E9E8F0E022
:10012000E491EE2309F43CC0992339F1933091F026
:1001300038F49130A9F0923001F594B59F7D12C04A
:10014000973091F09830A1F09430B9F490918000FC
:100150009F7D03C0909180009F77909380000DC099
:1001600094B59F7794BD09C09091B0009F7703C06C
:100170009091B0009F7D9093B000F0E0EE0FFF1FD4
:10018000EE58FF4FA591B4919FB7F894811104C028
:100190008C912095282302C0EC912E2B2C939FBF8D
:1001A00008958E3008F08E508770806480937C00B4
:1001B00080917A00806480937A0080917A0086FD35
:1001C000FCCF809178002091790090E0922B0895E7
:1001D0003FB7F89480918B0190918C01A0918D0193
:1001E000B0918E0126B5A89B05C02F3F19F001964E
:1001F000A11DB11D3FBFBA2FA92F982F8827820FAD
:10020000911DA11DB11DBC01CD0142E0660F771FFC
:10021000881F991F4A95D1F70895CF92DF92EF92E8
:10022000FF920F931F93CF93DF936C017A018B01A1
:10023000C0E0D0E0CE15DF0581F0D8016D918D01D1
:10024000D601ED91FC910190F081E02DC601099558
:10025000892B11F02196EECF7E01C701DF91CF915E
:100260001F910F91FF90EF90DF90CF900895FC01C8
:10027000538D448D252F30E0842F90E0821B930B0B
:10028000541710F0CF96089501970895FC01918DB1
:10029000828D981761F0828DDF01A80FB11D5D96E8
:1002A0008C91928D9F5F9F73928F90E008958FEF56
:1002B0009FEF0895FC01918D828D981731F0828D0A
:1002C000E80FF11D858D90E008958FEF9FEF089561
:1002D000FC01918D228D892F90E0805C9F4F821BC5
:1002E00091098F73992708958FE891E00E94680122
:1002F00021E0892B09F420E0822F0895FC01848DF0
:10030000DF01A80FB11DA35ABF4F2C91848D90E03F
:1003100001968F739927848FA689B7892C93A0891A
:10032000B1898C91837080648C93938D848D9813A4
:1003300006C00288F389E02D80818F7D8083089537
:10034000EF92FF920F931F93CF93DF93EC0181E025
:10035000888F9B8D8C8D981305C0E889F9898081E1
:1003600085FD26C0F62E0B8D10E00F5F1F4F0F731B
:100370001127E02E8C8DE8120CC00FB607FCFACFC7
:10038000E889F989808185FFF5CFCE010E947E0141
:10039000F1CF8B8DFE01E80FF11DE35AFF4FF08284
:1003A0009FB7F8940B8FEA89FB89808180620AC02D
:1003B0009FB7F894EE89FF896083E889F989808185
:1003C0008370806480839FBF81E090E0DF91CF9154
:1003D0001F910F91FF90EF900895CF93DF93EC0161
:1003E000888D8823C9F0EA89FB89808185FD05C055
:1003F000A889B9898C9186FD0FC00FB607FCF5CF8F
:10040000808185FFF2CFA889B9898C9185FFEDCFD6
:10041000CE010E947E01E7CFDF91CF91089580E069
:1004200090E0892B29F00E94740181110C94000046
:100430000895089580E090E00895009769F0FC0128
:1004400001900020E9F73197AF01481B590BBC011F
:100450008FE891E00C940D0180E090E008958F9278
:100460009F92AF92BF92CF92DF92EF92FF920F9343
:100470001F93CF93DF93CDB7DEB7A1970FB6F89454
:10048000DEBF0FBECDBF6C01990FEE08FF08F7FE6F
:100490002BC06DE28FE891E00E94A0018C01222721
:1004A0003327A9012C193D094E095F0919A2CE0174
:1004B00081967C019AE0892E912CA12CB12CCA0145
:1004C000B901A50194010E943D08605DF7016293A6
:1004D0007F01211531054105510589F7CF010E94A2
:1004E0001D02080F191F1EC0A701960119A28E0137
:1004F0000F5D1F4F8AE0C82ED12CE12CF12CCA01D0
:10050000B901A70196010E943D08605DF801629360
:100510008F01211531054105510589F7CF010E9451
:100520001D028C0188E191E00E941D02800F911F45
:10053000A1960FB6F894DEBF0FBECDBFDF91CF916D
:100540001F910F91FF90EF90DF90CF90BF90AF90F1
:100550009F908F9008958EE00E94D1000C942F02FE
:100560008FE00E94D1000C942F0280E10E94D10004
:100570000C942F0281E10E94D1000C942F0282E1A1
:100580000E94D1000C942F0283E10E94D1000C94B0
:100590002F0284E10E94D1000C942F0285E10E9479
:1005A000D1000C942F02CF93DF930E941D02EC0127
:1005B00088E191E00E941D028C0F9D1FDF91CF9179
:1005C00008958BE191E00E94D30281E00C948800B1
:1005D00082E291E00E94D30280E00C9488001F9395
:1005E000CF93DF9320914C0230914D022A30310598
:1005F00004F5EB01BC0112E1129FC001139F900DA5
:10060000112440E150E0825B9D4F0E94780A809166
:100610004C0290914D02189FF001199FF00D11248A
:10062000EE5CFD4FD5A7C4A7019690934D02809331
:100630004C02DF91CF911F9108954AE452E065E4A6
:1006400072E080E090E00E94A707009711F48AE230
:1006500091E00C94D3020E944C0A0F931F93CF9306
:10066000DF93EC0188819981009729F02A813B81F1
:100670002617370788F48B016F5F7F4F0E9486092A
:10068000009761F0998388831B830A832C813D81C5
:10069000232B11F4FC01108281E001C080E0DF9186
:1006A000CF911F910F910895CF93DF93EC01888133
:1006B0009981009711F00E94FD08198218821D820D
:1006C0001C821B821A82DF91CF910895EF92FF92D4
:1006D0000F931F93CF93DF93EC01009130021091A1
:1006E0003102E0902C02F0902D02E114F104C9F0E7
:1006F00001151105C9F08C819D81080F191FB801E2
:10070000CE010E942D03882361F0288139818C81DC
:100710009D81B701820F931F0E94630A1D830C8382
:1007200003C0CE010E945403CE01DF91CF911F91EF
:100730000F91FF90EF900895CF92DF92EF92FF928A
:100740000F931F93CF93DF93CDB7DEB728970FB6E4
:10075000F894DEBF0FBECDBF8C01CB014AE09E01F5
:100760002F5F3F4F6901B9010E94CE07F60101904A
:100770000020E9F73197EC19FD0901F1D801149631
:10078000ED90FC901597EE0EFF1EB701C8010E9478
:100790002D03882381F0F8012081318184819581A6
:1007A000B601820F931F0E94630AD8011596FC922E
:1007B000EE92149703C0C8010E945403C801289602
:1007C0000FB6F894DEBF0FBECDBFDF91CF911F9162
:1007D0000F91FF90EF90DF90CF9008952F923F926E
:1007E0004F925F926F927F928F929F92AF92BF9241
:1007F000CF92DF92EF92FF920F931F93CF93DF93ED
:10080000CDB7DEB76A970FB6F894DEBF0FBECDBF87
:1008100085E10E94D1009A8F898F84E10E94D100E6
:100820001C0183E10E94D1002C0182E10E94D100D1
:100830003C0181E10E94D1006C0180E10E94D10065
:100840005C018FE00E94D1004C018EE00E94D1003B
:100850001C8A1B8A1E8A1D8A188E1F8A4AE09E01E6
:100860002F5F3F4F7901B9010E94CE07F701019038
:100870000020E9F731978F010E191F09B801CE0149
:1008800043960E942D03811105C0CE0143960E941C
:10089000540307C0188F0F8BB7018B899C890E9466
:1008A000630ACE0143960E946603B4010E949C0332
:1008B0000E946603B5010E949C030E946603B60174
:1008C0000E949C030E946603B3010E949C030E9445
:1008D0006603B2010E949C030E946603B1010E945C
:1008E0009C030E946603698D7A8D0E949C03FC0123
:1008F00044815581608171818FE891E00E940D01F2
:1009000088E191E00E941D028B899C890E94FD086C
:100910006A960FB6F894DEBF0FBECDBFDF91CF91C0
:100920001F910F91FF90EF90DF90CF90BF90AF900D
:100930009F908F907F906F905F904F903F902F90FF
:1009400008951F920F920FB60F9211242F933F9389
:100950008F939F93AF93BF9380918701909188016C
:10096000A0918901B0918A013091860123E0230F83
:100970002D3720F40196A11DB11D05C026E8230FD7
:100980000296A11DB11D209386018093870190934B
:100990008801A0938901B0938A0180918B01909185
:1009A0008C01A0918D01B0918E010196A11DB11D08
:1009B00080938B0190938C01A0938D01B0938E0155
:1009C000BF91AF919F918F913F912F910F900FBE4B
:1009D0000F901F9018951F920F920FB60F9211242F
:1009E0002F933F934F935F936F937F938F939F9337
:1009F000AF93BF93EF93FF938FE891E00E947E0146
:100A0000FF91EF91BF91AF919F918F917F916F91E6
:100A10005F914F913F912F910F900FBE0F901F90BC
:100A200018951F920F920FB60F9211242F938F9348
:100A30009F93EF93FF93E0919F01F091A00180813C
:100A4000E091A501F091A60182FD12C090818091F4
:100A5000A8018F5F8F732091A901821751F0E09157
:100A6000A801F0E0E157FE4F958F8093A80101C0E7
:100A70008081FF91EF919F918F912F910F900FBEE9
:100A80000F901F9018951F920F920FB60F9211247E
:100A90000F900FBE0F901F90189510929201109218
:100AA000910188EE93E0A0E0B0E0809393019093F1
:100AB0009401A0939501B09396018AE091E0909300
:100AC000900180938F0185EC90E090939C0180933E
:100AD0009B0184EC90E090939E0180939D0180ECBB
:100AE00090E09093A00180939F0181EC90E090931F
:100AF000A2018093A10182EC90E09093A4018093E5
:100B0000A30186EC90E09093A6018093A50110923A
:100B1000A8011092A9011092AA011092AB011092A3
:100B200005031092040380E290E0909346028093C4
:100B300045028DE08093470210924D0210924C02C4
:100B4000E3E3F2E0119282E0E334F807D9F7109280
:100B500044021092430210922D0210922C02109225
:100B60002F0210922E02109231021092300261E098
:100B700070E08CE292E00E942D03811104C08CE2AF
:100B800092E00C94540381E090E0909331028093C2
:100B900030026AE371E080912C0290912D020C9456
:100BA000630A789484B5826084BD84B5816084BD15
:100BB00085B5826085BD85B5816085BD80916E00FB
:100BC000816080936E00109281008091810082602C
:100BD0008093810080918100816080938100809169
:100BE00080008160809380008091B1008460809358
:100BF000B1008091B00081608093B00080917A0054
:100C0000846080937A0080917A00826080937A0079
:100C100080917A00816080937A0080917A00806868
:100C200080937A001092C100EDE9F0E02491E9E8A8
:100C3000F0E08491882399F090E0880F991FFC01DF
:100C4000E859FF4FA591B491FC01EE58FF4F8591F3
:100C500094918FB7F894EC91E22BEC938FBF80E0E6
:100C60000E948800E0919F01F091A00182E08083C2
:100C7000E0919B01F0919C011082E0919D01F09127
:100C80009E018FEC80831092A701E091A301F09167
:100C9000A40186E08083E091A101F091A20180810E
:100CA00080618083E091A101F091A2018081886040
:100CB0008083E091A101F091A2018081806880830E
:100CC000E091A101F091A20180818F7D80838CE36E
:100CD00091E00E941D026BEA72E080E491E00E94C4
:100CE000EF0260EB72E086E491E00E94EF0265EBB8
:100CF00072E08CE491E00E94EF026AEB72E082E520
:100D000091E00E94EF026FEB72E088E591E00E94B3
:100D1000EF0264EC72E08EE591E00E94EF0269EC74
:100D200072E084E691E00E94EF026EEC72E08AE6E7
:100D300091E00E94EF026EEE73E080E791E00E9486
:100D4000EF026DE173E088E791E00E94EF0261EE4F
:100D500072E08DE791E00E94EF0268EE72E080E8B9
:100D600091E00E94EF0222E1B22E03E412E08FE84C
:100D700091E00E946801181619061CF58091040381
:100D800090910503892B39F080910403909105031C
:100D9000019749F016C08FE891E00E94680118168B
:100DA0001906C4F1F1CF8091060390910703DC018D
:100DB000ED91FC910084F185E02D09951816190636
:100DC0004CF10E94E8002B013C0182E3C82ED12C9B
:100DD000E12CF12C0E94E800DC01CB01841995097B
:100DE000A609B709883E9340A105B10598F381E0B3
:100DF000C81AD108E108F108A8EE4A0EA3E05A1E6D
:100E0000611C711CC114D104E104F10419F70E94A2
:100E10000F02ADCF8091040390910503892B29F433
:100E20008FE891E00E9446010BC0809106039091EB
:100E30000703DC01ED91FC910284F385E02D099517
:100E4000809332029091320280914702981345C0FC
:100E500010924402109243024AE452E065E472E0C8
:100E600083E392E00E94A7077C019093490280935C
:100E70004802892B09F4A5CF60904C0270904D0276
:100E80009EE4C92E92E0D92EC0E0D0E0C615D70569
:100E90000CF04AC040E150E0B601C7010E946A0A66
:100EA000B2E1CB0ED11C892BB1F4BC9EF001BD9EEA
:100EB000F00D1124EE5CFD4F04A4F5A5E02D09957D
:100EC000E3E3F2E011920E171F07E1F710924402DC
:100ED0001092430202C02196D9CFC09132028C2FCA
:100EE0000C2E000C990B0E94530A892B09F446CF53
:100EF00080914302909144029C012F5F3F4F3093B9
:100F0000440220934302FC01EE5CFD4FC183F901D2
:100F1000EE5CFD4F1182203131050CF42FCF109281
:100F20004402109243022ACFE0910203F09103039E
:100F30000995E3E3F2E0119222E0E334F207D9F7F6
:100F4000C5CF80912C0290912D020C94FD08FA01DE
:100F5000A191B081009719F41097E1F0CD01DC0167
:100F6000CD010D90002011F4C00113C0FB012191AF
:100F7000222319F02015D9F7F3CFFB012191201579
:100F800019F41E92119606C02223C1F70D9000207D
:100F9000A1F7D001FA01A193B0830895BB274A308D
:100FA00031F4992322F4BDE2909581959F4F0C94E2
:100FB000DA07BB27FB015527AA27880F991FAA1F0D
:100FC000A41710F0A41B83955051B9F7A05DAA3364
:100FD00008F0A95DA193009779F7B111B19311922F
:100FE000CB010C94F307DC01FC01672F719177238F
:100FF000E1F7329704C07C916D9370836291AE17D4
:10100000BF07C8F308959927882708952F923F9224
:101010004F925F926F927F928F929F92AF92BF9208
:10102000CF92DF92EF92FF920F931F93CF93DF93B4
:10103000CDB7DEB7CA1BDB0B0FB6F894DEBF0FBE11
:10104000CDBF09942A88398848885F846E847D845E
:101050008C849B84AA84B984C884DF80EE80FD8060
:101060000C811B81AA81B981CE0FD11D0FB6F894D6
:10107000DEBF0FBECDBFED010895A1E21A2EAA1B5F
:10108000BB1BFD010DC0AA1FBB1FEE1FFF1FA21738
:10109000B307E407F50720F0A21BB30BE40BF50B35
:1010A000661F771F881F991F1A9469F760957095BE
:1010B000809590959B01AC01BD01CF010895EE0F85
:1010C000FF1F0590F491E02D09940F931F93CF9388
:1010D000DF938230910510F482E090E0E0910A0302
:1010E000F0910B0320E030E0A0E0B0E0309719F180
:1010F000408151810281138148175907C8F0841734
:10110000950769F4109731F012960C931297139685
:101110001C9327C000930A0310930B0322C02115D0
:10112000310519F04217530718F49A01BD01EF0178
:10113000DF01F801DBCF21153105F9F0281B390B50
:101140002430310580F48A819B816115710521F07D
:10115000FB019383828304C090930B0380930A0363
:10116000FE01329644C0FE01E20FF31F819391937A
:1011700022503109398328833AC0209108033091E5
:101180000903232B41F42091020130910301309394
:1011900009032093080320910001309101012115DA
:1011A000310541F42DB73EB740910401509105013E
:1011B000241B350BE0910803F0910903E217F307B4
:1011C000A0F42E1B3F0B2817390778F0AC014E5FB7
:1011D0005F4F2417350748F04E0F5F1F50930903E8
:1011E000409308038193919302C0E0E0F0E0CF01C7
:1011F000DF91CF911F910F910895CF93DF930097C7
:1012000009F481C0FC01329713821282A0910A0373
:10121000B0910B03109781F420813181820F931FCD
:1012200020910803309109032817390751F5F093ED
:101230000903E093080367C0ED0120E030E0CE171A
:10124000DF0740F44A815B819E0141155105F1F0B1
:10125000EA01F5CFD383C28340815181840F951F6A
:10126000C817D90759F488819981840F951F029670
:10127000918380838A819B819383828321153105A9
:1012800029F4F0930B03E0930A033DC0E901FB83CB
:10129000EA8349915991C40FD51FEC17FD0761F4FA
:1012A00080819181840F951F0296E901998388833B
:1012B000828193819B838A83E0E0F0E012968D9196
:1012C0009C911397009719F0FD01DC01F7CF8D91E8
:1012D0009C9111979D012E5F3F4F820F931F20918C
:1012E0000803309109032817390769F4309729F466
:1012F00010920B0310920A0302C013821282B09361
:101300000903A0930803DF91CF910895A0E0B0E016
:10131000ECE8F9E00C940A08EC01009721F4CB0109
:101320000E946508B4C0FC01E60FF71F9C01225023
:101330003109E217F30708F4A8C0D9010D911C91F7
:10134000119706171707B0F00530110508F49BC078
:10135000C80104978617970708F495C00250110931
:10136000061B170B019311936D937C93CF010E9481
:10137000FD0889C05B01A01AB10A4C01800E911EC4
:10138000A0910A03B0910B03612C712CE12CF12C7C
:10139000109709F446C08D919C911197A815B90535
:1013A000B1F56C0142E0C40ED11CCA14DB0478F123
:1013B0004C018A189B08640142E0C40ED11C1296AD
:1013C000BC9012971396AC91B5E0CB16D10440F0C7
:1013D000B282A38391828082D9016D937C9309C0EC
:1013E0000E5F1F4F800F911FF90191838083EB2DBA
:1013F000FA2FE114F10431F0D7011396FC93EE9328
:10140000129741C0F0930B03E0930A033CC06816A7
:10141000790608F43C017D0112960D90BC91A02D37
:10142000B7CF809108039091090388169906E1F4DB
:1014300066167706C8F4809100019091010100972B
:1014400041F48DB79EB74091040150910501841B72
:10145000950BE817F907C8F4F0930903E093080324
:10146000F901718360830FC0CB010E9465087C0184
:10147000009759F0A801BE010E945A0ACE010E94AD
:10148000FD08C70104C0CE0102C080E090E0CDB7E6
:10149000DEB7EEE00C94260881E090E0F8940C941E
:1014A000870A803209F091110C94030880528F55FD
:1014B000D8F70895FB01DC0102C001900D92415064
:1014C0005040D8F70895FB01DC0101900D920020F7
:1014D000E1F70895FB01DC014150504030F08D915F
:1014E0000190801919F40020B9F7881B990B089511
:1014F000FB01DC014150504048F001900D9200206A
:10150000C9F701C01D9241505040E0F7089510E026
:10151000CDE5D0E004C0FE010E945F082196CE35E3
:08152000D107C9F7F894FFCFD1
:1015280000000C03800000000000A0010D0137013D
:10153800ED01680146015A010D0A004C4544206F2F
:101548006E004C4544206F6666006E6F7468696E65
:101558006720746F206563686F0020004869210068
:1015680044415441300044415441310044415441C4
:101578003200444154413300444154413400444111
:1015880054413500444154413600444154413700E8
:10159800414C4C44415441004543484F004F4E0094
:0415A8004F46460064
:107800000C94343C0C94513C0C94513C0C94513CE1
:107810000C94513C0C94513C0C94513C0C94513CB4
:107820000C94513C0C94513C0C94513C0C94513CA4
:107830000C94513C0C94513C0C94513C0C94513C94
:107840000C94513C0C94513C0C94513C0C94513C84
:107850000C94513C0C94513C0C94513C0C94513C74
:107860000C94513C0C94513C11241FBECFEFD8E036
:10787000DEBFCDBF11E0A0E0B1E0ECE9FFE702C060
:1078800005900D92A230B107D9F712E0A2E0B1E065
:1078900001C01D92AD30B107E1F70E942D3D0C945F
:1078A000CC3F0C94003C982F959595959595959582
:1078B000905D8F708A307CF0282F295A8091C0000B
:1078C00085FFFCCF9093C6008091C00085FFFCCF60
:1078D0002093C6000895282F205DF0CF982F809127
:1078E000C00085FFFCCF9093C6000895EF92FF92F1
:1078F0000F931F93EE24FF2487018091C00087FD22
:1079000017C00894E11CF11C011D111D81E4E8164B
:1079100082E4F8068FE0080780E0180770F3E09132
:107920000401F091050109958091C00087FFE9CF1E
:107930008091C6001F910F91FF90EF9008950E94D3
:10794000763C982F8091C00085FFFCCF9093C600B5
:1079500091362CF490330CF09053892F089597555D
:10796000892F08951F930E949F3C182F0E949F3CCF
:107970001295107F810F1F9108951F93182F882350
:1079800021F00E94763C1150E1F71F9108951F935A
:10799000182F0E94763C803249F0809103018F5F5E
:1079A000809303018530C1F01F9108958091C0003C
:1079B00085FFFCCF84E18093C6008091C00085FFE5
:1079C000FCCF1093C6008091C00085FFFCCF80E102
:1079D0008093C6001F910895E0910401F091050184
:1079E00009951F9108950E94763C803241F0809164
:1079F00003018F5F80930301853081F008958091AA
:107A0000C00085FFFCCF84E18093C6008091C00058
:107A100085FFFCCF80E18093C6000895E0910401CA
:107A2000F09105010995089540E951E08823A1F0FE
:107A30002D9A28EE33E0FA013197F1F721503040CA
:107A4000D1F72D9828EE33E0FA013197F1F7215064
:107A50003040D1F7815061F708953F924F925F9285
:107A60006F927F928F929F92AF92BF92CF92DF924E
:107A7000EF92FF920F931F93CF93DF93000080E16B
:107A80008093C4001092C50088E18093C10086E015
:107A90008093C2005098589A259A81E00E94143D24
:107AA00024E1F22E9EE1E92E85E9D82E0FE0C02ECA
:107AB00010E1B12EAA24A394B1E49B2EA6E58A2E50
:107AC000F2E57F2EE0E26E2E79E4572E63E5462E36
:107AD00050E5352E0E94763C8033B1F18133B9F107
:107AE000803409F46FC0813409F476C0823409F41B
:107AF00085C0853409F488C0803531F1823521F1A3
:107B0000813511F1853509F485C0863509F48DC0BC
:107B1000843609F496C0843709F403C1853709F423
:107B200072C1863709F466C0809103018F5F80932C
:107B30000301853079F6E0910401F0910501099582
:107B40000E94763C803351F60E94F33CC3CF0E94E2
:107B5000763C803249F78091C00085FFFCCFF092DF
:107B6000C6008091C00085FFFCCF9092C600809136
:107B7000C00085FFFCCF8092C6008091C00085FFC9
:107B8000FCCF7092C6008091C00085FFFCCF609250
:107B9000C6008091C00085FFFCCF5092C600809146
:107BA000C00085FFFCCF4092C6008091C00085FFD9
:107BB000FCCF3092C6008091C00085FFFCCFB09210
:107BC000C60088CF0E94763C863808F4BDCF0E945C
:107BD000763C0E94F33C7ECF0E94763C803809F4CC
:107BE0009CC0813809F40BC1823809F43CC1883942
:107BF00009F48FC080E00E94C73C6CCF84E10E94F2
:107C0000BD3C0E94F33C66CF85E00E94BD3C0E94D3
:107C1000F33C60CF0E94763C809306010E94763C44
:107C2000809307010E94F33C55CF0E94763C80333D
:107C300009F41DC183E00E94BD3C80E00E94C73C66
:107C400049CF0E94763C809309020E94763C809343
:107C5000080280910C028E7F80930C020E94763C79
:107C6000853409F415C18091080290910902892B8D
:107C700089F000E010E00E94763CF801E85FFE4FDA
:107C800080830F5F1F4F80910802909109020817AF
:107C9000190788F30E94763C803209F045CF809125
:107CA0000C0280FF01C16091060170910701660F0F
:107CB000771F7093070160930601A0910802B091AD
:107CC00009021097C9F0E8E0F1E09B01AD014E0F09
:107CD0005F1FF999FECF32BD21BD819180BDFA9A17
:107CE000F99A2F5F3F4FE417F50799F76A0F7B1F4B
:107CF00070930701609306018091C00085FFFCCF5F
:107D0000F092C6008091C00085FFFCCFB092C60003
:107D1000E1CE83E00E94C73CDDCE82E00E94C73CFA
:107D2000D9CE0E94763C809309020E94763C8093D3
:107D300008028091060190910701880F991F909386
:107D40000701809306010E94763C853409F4A6C0A1
:107D500080910C028E7F80930C020E94763C8032D0
:107D600009F0B8CE8091C00085FFFCCFF092C6002C
:107D7000609108027091090261157105B9F140E046
:107D800050E080910C02A82FA170B82FB27011C0E2
:107D9000BB2309F45CC0E0910601F0910701319624
:107DA000F0930701E09306014F5F5F4F46175707B7
:107DB000E8F4AA2369F3F999FECF209106013091E6
:107DC000070132BD21BDF89A90B58091C00085FFB2
:107DD000FCCF9093C6002F5F3F4F30930701209355
:107DE00006014F5F5F4F4617570718F38091C00099
:107DF00085FDE5CE8091C00085FFF8CFE0CE81E023
:107E00000E94C73C67CE0E94763C803209F08CCE3F
:107E10008091C00085FFFCCFF092C6008091C00029
:107E200085FFFCCFE092C6008091C00085FFFCCFAB
:107E3000D092C6008091C00085FFFCCFC092C600E2
:107E40008091C00085FFFCCFB092C60043CEE09188
:107E50000601F091070194918091C00085FFFCCF4D
:107E60009093C6009CCF80E10E94C73C33CE0E9415
:107E7000763C0E94763C182F0E94763C112309F430
:107E800083C0113009F484C08FE00E94C73C22CE29
:107E900080910C02816080930C02E5CE80910C02EF
:107EA000816080930C0259CF809107018823880F4D
:107EB000880B8A2180930B02809106019091070123
:107EC000880F991F90930701809306018091080203
:107ED00080FF09C080910802909109020196909359
:107EE000090280930802F894F999FECF1127E091D6
:107EF0000601F0910701C8E0D1E08091080290915D
:107F00000902103091F40091570001700130D9F34B
:107F100003E000935700E89500915700017001308D
:107F2000D9F301E100935700E89509901990009169
:107F3000570001700130D9F301E000935700E89534
:107F40001395103498F011270091570001700130FB
:107F5000D9F305E000935700E895009157000170B0
:107F60000130D9F301E100935700E895329602976A
:107F700009F0C7CF103011F00296E5CF112480919F
:107F8000C00085FFB9CEBCCE8EE10E94C73CA2CD19
:0C7F900085E90E94C73C9ECDF894FFCF0D
:027F9C00800063
:040000030000780081
:00000001FF
